S01400006D696E695F776173686965722E7372656311
S113000045C0000045C5000098C50000E5C50000D6
S11300105BC0000059C0000057C0000055C000007C
S113002053C0000051C000004FC000004DC000008C
S11300304BC0000049C0000047C000001DC60000BE
S113004043C0000041C000003FC000003DC00000AC
S11300503BC0000039C0000037C0000035C00000BC
S113006033C0000031C000002FC000002DC00000CC
S11300702BC0000029C0000027C0000025C00000DC
S113008023C0000021C000001FC0000011241FBEB7
S1130090CFEFD0E1DEBFCDBF15E0A0E0B1E0E2E1FB
S11300A0F7E200E00BBF02C007900D92A236B10741
S11300B0D9F728E0A2E6B5E001C01D92A63BB2073D
S11300C0E1F704D60C9487139BCF3E9A86B18760E0
S11300D086B9379A359A369A089597B1907E892BC6
S11300E087B9349BFECF84B195B10895E4E6F0E07E
S11300F08081817080838B9808950F931F93CF9391
S1130100DF9320916300C82FD0E030E0082E02C0B6
S1130110359527950A94E2F789010170112720FD8E
S11301200FC0FE01EE59FA4F9081911109C080ED84
S113013097E0ABD0CBD0CE59DA4F81E0888322C090
S11301409091630021E030E002C0220F331F8A95B2
S1130150E2F7892F90E0822393232817390769F463
S1130160FE01EE59FA4F8081813051F49BD0CE5973
S1130170DA4F188201E010E005C000E010E002C090
S113018000E010E0C801DF91CF911F910F91089515
S11301900F931F93CF93DF9320916300C82FD0E078
S11301A030E0082E02C0359527950A94E2F78901BC
S11301B00170112720FD0FC0FE01EE59FA4F908106
S11301C0911109C080ED97E060D080D0CE59DA4F0C
S11301D081E0888349C02091630030E0082E02C08A
S11301E0359527950A94E2F789010170112720FDBE
S11301F016C0CE59DA4F88818130A1F553D02FEF44
S113020086E791E0215080409040E1F700C0000073
S113021080ED97E03AD05AD001E010E025C09091EB
S1130220630021E030E002C0220F331F8A95E2F719
S1130230892F90E0822393232817390769F4FE015C
S1130240EE59FA4F8081813051F42CD0CE59DA4FD7
S1130250188201E010E008C000E010E005C000E0F2
S113026010E002C080916300C801DF91CF911F911B
S11302700F910895839B03C0839904C0089580E07F
S113028090E0089581E090E008959C01990F440B5B
S1130290550B60E472E48FE090E00E947C103BBD5B
S11302A02ABD08958FB58F738FBD0895BD9A8EB5FD
S11302B082608EBD8EB588608EBD8FB580648FBD23
S11302C088EE93E09BBD8ABDEDCF08958FB5806421
S11302D08FBD0895880F991F880F991F880F991F44
S11302E0FC01E60FF71FEE0FFF1FEE0FFF1FE9598A
S11302F0FE4F60817181828193810E94ED0F9B0189
S1130300770F440B550B60E472E48FE090E00E9499
S11303107C103BBD2ABD089564E070E088E090E065
S1130320D9DFD4DF2FEF85EA9EE021508040904052
S1130330E1F700C0000064E070E085E090E0CADF0F
S11303402FEF85EA9EE0215080409040E1F700C005
S1130350000064E070E087E090E0BCDF2FEF85EA06
S11303609EE0215080409040E1F700C0000064E02E
S113037070E089E090E0AEDF2FEF85EA9EE0215047
S113038080409040E1F700C000008CCF089564E005
S113039070E08BE090E09EDF99DF2FEF85EA9EE02E
S11303A0215080409040E1F700C0000064E070E01C
S11303B089E090E08FDF2FEF85EA9EE021508040B6
S11303C09040E1F700C0000064E070E087E090E056
S11303D081DF2FEF85EA9EE0215080409040E1F7D5
S11303E000C0000064E070E085E090E073DF2FEF70
S11303F085EA9EE0215080409040E1F700C0000073
S113040051CF0895EF92FF920F931F93CF93DF93F1
S113041049DFC8E8D1E0DBBDCABD58DF2FEF87E86C
S113042093E1215080409040E1F700C000003ADFA2
S11304302FEF86E791E0215080409040E1F700C023
S11304400000DBBDCABD42DF2FEF83EC99E02150F1
S113045080409040E1F700C0000024DF2FEF86E7E2
S113046091E0215080409040E1F700C00000DBBDE6
S1130470CABD2CDF2FEF83EC99E0215080409040DF
S1130480E1F700C000000EDF2FEF86E791E0215076
S113049080409040E1F700C00000DBBDCABD16DF1C
S11304A02FEF87E893E1215080409040E1F700C0AE
S11304B00000F8DE2FEF86E791E021508040904065
S11304C0E1F700C00000DBBDCABD00DF2FEF87E805
S11304D093E1215080409040E1F700C00000E2DE4B
S11304E02FEF86E791E0215080409040E1F700C073
S11304F000000F2EFAE4EF2EFF24F394F02DFBBC42
S1130500EABCE4DE2FEF87E893E12150804090407D
S1130510E1F700C00000C6DE2FEF86E791E021502E
S113052080409040E1F700C0000006E011E01BBDF0
S11305300ABDCCDE2FEF83EC99E02150804090403F
S1130540E1F700C00000AEDE2FEF86E791E0215016
S113055080409040E1F700C000001BBD0ABDB6DE3C
S11305602FEF83EC99E0215080409040E1F700C0E8
S1130570000098DE2FEF86E791E021508040904004
S1130580E1F700C00000FBBCEABCA0DE2FEF87E867
S113059093E1215080409040E1F700C0000082DEEA
S11305A02FEF86E791E0215080409040E1F700C0B2
S11305B00000DBBDCABD8ADE2FEF87E893E121503E
S11305C080409040E1F700C000006CDE2FEF86E72A
S11305D091E0215080409040E1F700C000001BBD35
S11305E00ABD74DE2FEF83EC99E0215080409040E7
S11305F0E1F700C0000056DE2FEF86E791E02150BE
S113060080409040E1F700C000001BBD0ABD5EDEE3
S11306102FEF83EC99E0215080409040E1F700C037
S1130620000040DE2FEF86E791E0215080409040AB
S1130630E1F700C00000FBBCEABC48DE2FEF87E80E
S113064093E1215080409040E1F700C000002ADE91
S11306502FEF86E791E0215080409040E1F700C001
S113066000001BBD0ABD32DE2FEF83EC99E0215060
S113067080409040E1F700C0000014DE2FEF86E7D1
S113068091E0215080409040E1F700C000001BBD84
S11306900ABD1CDE2FEF83EC99E02150804090408E
S11306A0E1F700C00000FEDD2FEF86E791E0215066
S11306B080409040E1F700C00000FBBCEABC06DECD
S11306C02FEF87E893E1215080409040E1F700C08C
S11306D00000E8DD2FEF86E791E021508040904054
S11306E0E1F700C00000DBBDCABDF0DD2FEF87E8F5
S11306F093E1215080409040E1F700C00000D2DD3A
S11307002FEF86E791E0215080409040E1F700C050
S11307100000DBBDCABDDADD2FEF87E893E121508D
S113072080409040E1F700C00000BCDD2FEF86E779
S113073091E0215080409040E1F700C00000DBBD13
S1130740CABDC4DD2FEF8FE097E221508040904076
S1130750E1F700C00000A6DD82B38F7082BBDF9199
S1130760CF911F910F91FF90EF9008958FEF82B971
S1130770EAE8F0E0808189608083EBE8F0E0808142
S113078081608083808188628083089510928500CF
S113079010928400109283001092820008951092A7
S11307A085001092840090E09093830080938200EF
S11307B0089590E0909385008093840010928300C4
S11307C0109282000895D29AD19AD09A0895D89A14
S11307D00895D8980895DA98DA9ADA980895D99A03
S11307E00895D9980895D1980895D19A08959DECC3
S11307F0899F912D112496959695969520E1929F27
S1130800A0011124990F292F220F220F920F891B67
S1130810842B0895982F92959F70990F292F220F5A
S1130820220F920F8F70890F08950F931F93CF9308
S1130830DF93082FDADFC0E0D0E010E098010C2E3F
S113084002C0359527950A94E2F720FF02C0C7DF5E
S113085001C0C7DFC0DF2196C830D10579F7DF9129
S1130860CF911F910F910895DF92EF92FF920F9312
S11308701F93CF93DF93B7DFC0E0D0E010E0D12C1B
S113088000E0EE24E394F12CC99B08C0C7010C2EB0
S113089002C0880F991F0A94E2F701C08D2D182B0E
S11308A09ADF2196C830D10579F7812FDF91CF9156
S11308B01F910F91FF90EF90DF900895CF93DF93F6
S11308C0D82FC62F84DF8D2FB0DF8C2F90DFADDFC4
S11308D080DFDF91CF910895CF93C82F78DF81E037
S11308E08C0FA3DFC1DFC82F74DF8C2F93DFCF9170
S11308F00895CF93DF93EC0180E8EEDF888382E8EC
S1130900EBDF898384E8E8DF8A83DF91CF91089560
S11309100F931F93CF93DF93CDB7DEB729970FB60D
S1130920F894DEBF0FBECDBF1A832B833C834D8367
S11309305E836F83602F80E8C1DF6A8182E8BEDF57
S11309406B8184E8BBDF6C8186E8B8DF6D8188E861
S1130950B5DF6E818AE8B2DF6F818CE8AFDF29965C
S11309600FB6F894DEBF0FBECDBFDF91CF911F91BC
S11309700F91089587E998E0BCDF80919708817012
S113098090E008950F931F93E7E9F8E01082118235
S11309901282138215821482168200E010E020E095
S11309A030E040E050E060E070919E0880919F0844
S11309B0AFDF1F910F910895C49A8FE99FE00197CB
S11309C0F1F700C00000C4988FE99FE00197F1F7A8
S11309D000C000000895C29A85BBEEDF8FE39FE15B
S11309E00197F1F700C000000895C29885BBE4DFC9
S11309F08FE39FE10197F1F700C00000089581E0C3
S1130A00F4DF8FE39FE10197F1F700C00000089540
S1130A102FEF80E792E0215080409040E1F700C042
S1130A2000008FEF84BB15BA87B38C6187BBC39872
S1130A3088E3DBDF8CE0D9DFE2DF86E0D6CF089500
S1130A400F931F93CF93FC018081882351F08F0172
S1130A50C0E0C1DFCF5FF801EC0FF11D808181118F
S1130A60F8CFCF911F910F91089581706F7090E42A
S1130A70899F600D1124862F8058B7CF0895CF9396
S1130A80DF93EA01F2DFCE01DBDFDF91CF9108953E
S1130A901F920F920FB60F9211240BB60F922F9341
S1130AA03F934F935F936F937F938F939F93AF93F2
S1130AB0BF93EF93FF932FEF89E698E12150804095
S1130AC09040E1F700C0000088B7886088BF80913B
S1130AD09408811105C081E0809394081DDC19C03D
S1130AE08130B9F454DC1092950810929308109256
S1130AF096080E948A0F0E948F0F48DED3DB109263
S1130B009208E5E6F0E080818E7F808313B810922E
S1130B10940875DFFF91EF91BF91AF919F918F91F1
S1130B207F916F915F914F913F912F910F900BBEE9
S1130B300F900FBE0F901F9018951F920F920FB633
S1130B400F9211240BB60F922F933F934F935F9301
S1130B506F937F938F939F93AF93BF93EF93FF9381
S1130B602FEF89E698E1215080409040E1F700C0E2
S1130B70000080919508823081F08330C9F480911F
S1130B806B05811115C082E08093950881E0809304
S1130B906B05FCDD0E94FF0E0BC080916B0581305C
S1130BA039F483E0809395080E94040F10926B053A
S1130BB026DFFF91EF91BF91AF919F918F917F912C
S1130BC06F915F914F913F912F910F900BBE0F90BA
S1130BD00FBE0F901F9018951F920F920FB60F9291
S1130BE011240BB60F922F933F934F935F936F9300
S1130BF07F938F939F93AF93BF93EF93FF932FEFC5
S1130C0089E698E1215080409040E1F700C000005F
S1130C1031DB892B71F0809195088330C9F482E02F
S1130C2080939508B3DD0E94FF0E81E080936A05EE
S1130C300FC080919508823059F480916A05813003
S1130C4039F483E0809395080E94040F10926A059A
S1130C50D6DEFF91EF91BF91AF919F918F917F91DC
S1130C606F915F914F913F912F910F900BBE0F9019
S1130C700FBE0F901F9018951F920F920FB60F92F0
S1130C8011240BB60F922F933F934F935F936F935F
S1130C907F938F939F93AF93BF93EF93FF930E94A0
S1130CA0A00F0E94BD0FFF91EF91BF91AF919F9153
S1130CB08F917F916F915F914F913F912F910F9001
S1130CC00BBE0F900FBE0F901F901895FED9A0DE9B
S1130CD0EDDA0E94940F4ADD76DD08DA53DE89B737
S1130CE0876089BFEAE6F0E0808183608083808149
S1130CF08C608083808180618083C1E0C0936400C4
S1130D00C093650081B3806F81BB82B38F7082BB57
S1130D10789447EE52E060E080E0B1DEFDDA07D37C
S1130D20109295081092930810929608C093940814
S1130D30C5E6D0E004E610E080919408882319F019
S1130D40813009F1FBCF4DEE52E060E080E097DEA8
S1130D504EEF52E060E081E092DE1092950810922E
S1130D606B0510929308109296080E948A0F0E94B5
S1130D708F0F0CDD97DA1092920888818E7F88831A
S1130D8013B812BAD9CFF80180818160808381E0E1
S1130D90888380919508813051F028F0823049F0A1
S1130DA0833099F0C9CFF2DC17D17C01C5CF1FD6AF
S1130DB0C3CF41E153E060E080E061DE4DEE52E0FC
S1130DC060E081E05CDEE2DCB7CF809193088823A9
S1130DD011F03AD7B1CFC7010E94580FADCF62309E
S1130DE0710581059105E9F058F4611571058105D6
S1130DF0910589F0613071058105910579F01FC075
S1130E00633071058105910579F0643071058105C0
S1130E10910599F014C02DE331E011C029E231E0CD
S1130E200EC025E131E00BC081E090E090936F08A3
S1130E3080936E0821E031E002C026E738E0C90162
S1130E4008958F929F92AF92BF92CF92DF92EF92CA
S1130E50FF920F931F93CF93DF934B015C019B0190
S1130E60220F331FCB01880F991F880F991F880FFA
S1130E70991F820F931F9093DB058093DA0541E25B
S1130E8053E060E080E0FBDD89EA98E032DDC9EA06
S1130E90D8E08A8160E17EE0869F9001879F300DD3
S1130EA0112489819CE3899F200D311D112488819F
S1130EB0280F311D3093D9052093D8050091DA0508
S1130EC01091DB05021B130BC8010E9447106C0133
S1130ED077277F936F9380E495E09F938F9388EBBC
S1130EE095E09F938F930E94AC100F2EFCE3EF2E9E
S1130EF0F12CF02DC601B7010E94471077277F938C
S1130F006F9383E495E09F938F9388E995E09F9393
S1130F108F930E94AC10C801B7010E944710992713
S1130F209F938F9382E393E09F938F9388E795E059
S1130F309F938F930E94AC108FEF3BDC8DB79EB7CD
S1130F4042960FB6F8949EBF0FBE8DBF98818091D4
S1130F508A08981799F048EB55E060E081E08FDD4E
S1130F6048E955E066E081E08ADD48E755E069E05C
S1130F7081E085DD8091A90880938A082091DA05B3
S1130F803091DB058091D8059091D9052817390750
S1130F9021F089288A288B2891F4F8DB30DD10921F
S1130FA09608109295081092940810926F08109267
S1130FB06E084BE353E060E080E061DD23DADF910B
S1130FC0CF911F910F91FF90EF90DF90CF90BF9042
S1130FD0AF909F908F900895CF93DF93CDB7DEB7F6
S1130FE0A6970FB6F894DEBF0FBECDBF8AE0E1E549
S1130FF0F1E0DE01119601900D928A95E1F78CE003
S1131000EBE5F1E0DE011B9601900D928A95E1F784
S113101080919208882321F0813009F473C070C153
S11310204CE453E060E080E02ADD82E066D8892B5E
S113103049F0809176059091770501969093770514
S1131040809376058091760590917705059724F035
S1131050109277051092760583E04FD8892B49F0DA
S11310608091760590917705019790937705809309
S113107076058091760590917705992334F484E080
S113108090E0909377058093760574DC892B31F09A
S11310904DEE52E060E081E0F2DC0DC0E0917605B7
S11310A0F0917705EE0FFF1FEC0FFD1F4181528178
S11310B060E081E0E4DC81E020D8892B09F423C1DD
S11310C06091760570917705643071056CF481E068
S11310D0809395081092770510927605072E000CE0
S11310E0880B990B7CDE1AC16430710509F00EC1BE
S11310F081E080939208109277051092760580E043
S113110090E00CC1E0917405F0917505EE0FFF1F9E
S1131110EC0FFD1F4385548560E080E0B0DC82E085
S11311200E947D00892B49F080917205909173058E
S11311300196909373058093720583E00E947D006D
S1131140892B49F0809172059091730501979093D2
S113115073058093720580917205909173058430B4
S113116091051CF4992324F005C080E090E002C0AE
S113117083E090E090937305809372052091740549
S1131180309175052130310591F49F938F938DE54E
S113119093E09F938F93CE0147969F938F93DCD7D1
S11311A00F900F900F900F900F900F9057C0253015
S11311B0310594F52330310591F49F938F938DE697
S11311C093E09F938F93CE0147969F938F93C4D7B9
S11311D00F900F900F900F900F900F903FC09C01B5
S11311E0220F331F880F991F880F991F880F991F8B
S11311F0820F931F9F938F938DE793E09F938F9319
S1131200CE0147969F938F93A7D70F900F900F907F
S11312100F900F900F9022C09C012170332780FD06
S11312200AC081E1EFE8F3E0DE01579601900D92E8
S11312308A95E1F709C082E1E0EAF3E0DE0157961E
S113124001900D928A95E1F781E090E0232B11F44F
S113125080E090E090936F0880936E088BDB892B7D
S113126031F04DEE52E060E081E009DC06C0AE01F1
S1131270495E5F4F60E081E002DC81E00E947D0016
S1131280892B09F446C080917405909175058530C9
S1131290910504F5FC01EE0FFF1FEE0FFF1FEA5846
S11312A0F74F4091720550917305052E000C660BA3
S11312B0770B408351836283738301969093750502
S11312C080937405109273051092720598DB80E088
S11312D090E024C0059701F51092750510927405ED
S11312E08EDB81E08093950810929208109273052A
S11312F01092720564E070E080E090E070DD0EC052
S113130080E090E00BC080E090E008C080E090E0D6
S113131005C080E090E002C080E090E0A6960FB6A1
S1131320F894DEBF0FBECDBFDF91CF9108950F9328
S11313301F93E9EAF8E012821182108200E010E0C3
S113134020E03091AC084091AD085091AE08609116
S1131350AF087091B0088091B108DADA1F910F914B
S113136008954F925F926F927F928F929F92AF9265
S1131370BF92CF92DF92EF92FF92CF93DF9300D090
S113138000D0CDB7DEB72B013C0146E654E060E067
S113139080E075DB89EA98E0ACDA4091AB0820E1A3
S11313A03EE0429FC001439F900D11242091AA0862
S11313B03CE3239F800D911D1124E9EAF8E020818C
S11313C0820F911D092E000CAA0BBB0B8093680899
S11313D090936908A0936A08B0936B08342D330F77
S11313E0232F220F220F230FC22ED12CE12CF12CFC
S11313F046015701881A990AAA0ABB0AC501B40111
S113140020E13EE040E050E055D669837A838B8347
S11314109C831F922F9380E495E09F938F9388E29F
S113142098E09F938F9398D669817A818B819C8170
S11314302CE330E040E050E03DD61F922F9383E44C
S113144095E09F938F9388EE97E09F938F9384D634
S1131450C501B4012CE330E040E050E02BD61F92EC
S11314606F9382E393E09F938F9388EA97E09F932F
S11314708F9372D60FB6F894DEBF0FBECDBFE9EAE4
S1131480F8E0908180918A08981799F048E258E032
S113149060E081E0F4DA48EE57E066E081E0EFDAFC
S11314A048EA57E069E081E0EADA8091A90880938C
S11314B08A088091680890916908A0916A08B0919F
S11314C06B08C816D906EA06FB0621F0452846280B
S11314D0472869F482E08093960829DF80916C089C
S11314E090916D08019690936D0880936C080F900D
S11314F00F900F900F90DF91CF91FF90EF90DF90BE
S1131500CF90BF90AF909F908F907F906F905F909F
S11315104F9008954F925F926F927F928F929F9215
S1131520AF92BF92CF92DF92EF92FF920F931F93ED
S1131530CF93DF93062F29013A0147E754E060E097
S113154080E09DDA11D589EA98E0D3D9C9EAD8E0D8
S11315504A8120E13EE0429FC001439F900D112447
S113156029813CE3239F800D911D11242881820F42
S1131570911D092E000CAA0BBB0B8093A40790931A
S1131580A507A093A607B093A707C42CCC0C2C2DB9
S1131590220F220FC20ED12CE12CF12C460157014F
S11315A0881A990AAA0ABB0AC501B40120E13EE0DF
S11315B040E050E07FD5122F2CE330E040E050E0D3
S11315C079D52093A307C501B4012CE330E040E0B2
S11315D050E070D56093A2071F921F9380E495E0BA
S11315E09F938F9382E697E09F938F93B5D58091D5
S11315F0A3071F928F9383E495E09F938F9382E2D6
S113160097E09F938F93A8D58091A2071F928F9301
S113161082E393E09F938F9382EE96E09F938F9360
S11316209BD58DB79EB742960FB6F8949EBF0FBE5A
S11316308DBF988180918A08981799F042E657E007
S113164060E081E01CDA42E257E066E081E017DA0C
S113165042EE56E069E081E012DA8091A9088093B5
S11316608A088091A90880FF0BC08091E1068F5FF2
S1131670843019F08093E10603C01092E10604C09F
S11316808091E106811106C085E5089F802D112413
S113169090D818C0813031F48DE2089F802D112438
S11316A07ED810C0823039F471D885E5089F802D2A
S11316B0112475D807C0833029F48DE2089F802D4A
S11316C0112477D88091A4079091A507A091A6072B
S11316D0B091A707C816D906EA06FB0621F04528EB
S11316E04628472821F483E08093960820DEDF9182
S11316F0CF911F910F91FF90EF90DF90CF90BF900B
S1131700AF909F908F907F906F905F904F900895CF
S11317104F925F926F927F928F929F92AF92BF92FD
S1131720CF92DF92EF92FF92CF93DF9300D000D05D
S1131730CDB7DEB72B013C018AE08093E0067F92AF
S11317406F925F924F92809100011F928F9388E86D
S113175094E09F938F9380EA96E09F938F93FCD4B9
S113176040EA56E060E080E08AD982B30FB6F8948C
S1131770DEBF0FBECDBF20916E0830916F08232BC2
S113178011F090E201C090E1892B82BBEDD389EA8C
S113179098E0AFD84091AB0820E13EE0429FC00101
S11317A0439F900D11242091AA083CE3239F800DB0
S11317B0911D1124E9EAF8E02081820F911D092E80
S11317C0000CAA0BBB0B80939C0690939D06A093E0
S11317D09E06B0939F06C090E006D12CE12CF12C1C
S11317E0C81AD90AEA0AFB0AC701B60120E13EE099
S11317F040E050E081D469837A838B839C831F9279
S11318002F9380E495E09F938F938CE596E09F93CC
S11318108F93A2D40F2EFCE38F2E912CA12CB12CEC
S1131820F02D69817A818B819C81A501940164D416
S11318301F922F9383E495E09F938F938CE196E01E
S11318409F938F9389D4C701B601A501940154D401
S11318501F926F9382E393E09F938F938CED95E0B7
S11318609F938F9379D40FB6F894DEBF0FBECDBF8C
S1131870E9EAF8E0908180918A08981799F04CE59C
S113188056E060E081E0FBD84CE156E066E081E0A0
S1131890F6D84CED55E069E081E0F1D88091A908D3
S11318A080938A089091A9088BEA989F812D11242E
S11318B08695282F220F820F981BEFE3FCE93197BE
S11318C0F1F700C00000913021F488EC0E94D903A4
S11318D003C088EC0E94CF0320910001822F90E086
S11318E0A0E0B0E0481659066A067B06D1F0809164
S11318F0E00690E0A0E0B0E040919C0650919D0687
S113190060919E0670919F0684179507A607B707F6
S1131910D1F42F5F2093000183E08093960807DDC4
S113192023C08091E00690E0A0E0B0E040919C06E6
S113193050919D0660919E0670919F0684179507AD
S1131940A607B70721F045284628472869F481E00F
S11319508093000183E08093960881E090E0909367
S1131960710880937008E3DC0F900F900F900F9034
S1131970DF91CF91FF90EF90DF90CF90BF90AF9029
S11319809F908F907F906F905F904F9008950E94EA
S1131990C60382B38F7C82BB969A4DE954E060E023
S11319A080E06DD84EEA54E060E081E068D880E0E1
S11319B00E946D000A9754F4809170089091710808
S11319C0892B21F410929608B2DC19D880E00E9489
S11319D06D000A975CF480917008909171080197EA
S11319E029F485E080939608A2DC09C80895CF9372
S11319F0DF93CDB7DEB7A0970FB6F894DEBF0FBE66
S1131A00CDBF8091700590917105009721F00197E9
S1131A1009F448C00FC14FEB54E060E080E02FD8D8
S1131A2080916E0590916F05892B31F440ED54E05F
S1131A3060E081E024D805C04EED54E060E081E030
S1131A401ED882E00E947D00892B29F483E00E9445
S1131A507D00892B51F080916E0590916F0521E0F6
S1131A60822790936F0580936E0581E00E947D002C
S1131A70892B09F4DFC080916E0590916F05813048
S1131A80910539F481E090E090937105809370059D
S1131A90D1C0892B09F0CEC01092930883E08093C3
S1131AA09508C8C080916C0590916D05892B09F04B
S1131AB05CC04DEE54E060E080E00E943F0582E0AF
S1131AC00E947D00892B61F08091740890917508C3
S1131AD0873191052CF401969093750880937408CE
S1131AE083E00E947D00892B61F0809174089091BD
S1131AF07508181619062CF40197909375088093AD
S1131B007408809175088F93809174088F938CEF7B
S1131B1094E09F938F93CE0101969F938F931CD350
S1131B200E94BA040F900F900F900F900F900F9097
S1131B30892B39F047E055E060E081E00E943F05E1
S1131B4007C0AE014F5F5F4F60E081E00E943F0538
S1131B5081E00E947D00892B09F46CC081E090E053
S1131B6090936D0580936C0565C049E155E060E094
S1131B7080E00E943F0582E00E94C800892B61F04A
S1131B8080917208909173088B3391052CF401961F
S1131B90909373088093720883E00E94C800892B95
S1131BA061F08091720890917308181619062CF44C
S1131BB001979093730880937208809173088F93B0
S1131BC0809172088F938AE295E09F938F93CE0160
S1131BD001969F938F93C0D20E94BA040F900F90E6
S1131BE00F900F900F900F90892B39F04CE055E037
S1131BF065E081E00E943F0507C0AE014F5F5F4F83
S1131C0066E081E00E943F0581E00E947D00892B0F
S1131C1089F010926D0510926C0510926F05109268
S1131C206E0585DB0E94FF0481E08093930883E0C6
S1131C30809395087CDBA0960FB6F894DEBF0FBEA8
S1131C40CDBFDF91CF9108954F925F926F927F92B3
S1131C508F929F92AF92BF92CF92DF92EF92FF92B8
S1131C600F931F93CF93DF93CDB7DEB7C05CD10939
S1131C700FB6F894DEBF0FBECDBF8091740890916B
S1131C80750800E11EE0809F6001819FD00C909F49
S1131C90D00C112420917208309173080F2EFCE3AC
S1131CA0BF2EF02DB29EC001B39E900D1124C80E1C
S1131CB0D91E0D2C000CEE08FF084FE255E060E041
S1131CC080E00E943F0589EA98E00E947904E9EAED
S1131CD0F8E02281209FC001219F900D11242181D1
S1131CE0B29E800D911D11242081820F911D092E19
S1131CF0000CAA0BBB0BC81AD90AEA0AFB0AC701D3
S1131D00B60120E13EE040E050E0D4D14B015C015B
S1131D105F934F933F932F938FE395E09F938F931C
S1131D208E010F571F4F1F930F9316D20F2EFCE3F4
S1131D304F2E512C612C712CF02DC501B401A3013F
S1131D409201B8D15F934F933F932F9383E495E02F
S1131D509F938F934E0181E4880E911C9F928F92E2
S1131D60FBD1C701B601A3019201A4D19F938F9324
S1131D707F936F9389E495E09F938F93CE010196AF
S1131D805C019F938F93E8D1A80160E081E00E94F9
S1131D903F05A40167E081E00E943F05A5016AE0D8
S1131DA081E00E943F050FB6F894DEBF0FBECDBFA1
S1131DB0CD28CE28CF2859F410929308B8DA10927F
S1131DC07508109274081092730810927208C05427
S1131DD0DF4F0FB6F894DEBF0FBECDBFDF91CF91BA
S1131DE01F910F91FF90EF90DF90CF90BF90AF9035
S1131DF09F908F907F906F905F904F90089580EAAE
S1131E0098E00C94790408950F931F930091A0080F
S1131E101091A1082091A2083091A3084091A40830
S1131E205091A5086091A6087091A7088091A80810
S1131E300E9488041F910F91089541E555E060E0E8
S1131E4080E00E943F054DEE52E060E081E00E9498
S1131E503F05969880916E0890916F08892B11F434
S1131E60949A01C0959A80E00E946D008B33924051
S1131E7074F080916C0890916D08892B41F482B3C1
S1131E808F7082BB81E08093960851CA089580E0E8
S1131E900E946D00833C914054F080916C089091B5
S1131EA06D08019721F484E08093960840CA089550
S1131EB0FC01909196089230A1F028F4992349F0FE
S1131EC0913049F008959430C1F0A8F09530D9F0DC
S1131ED00895B3CF0895608171818281938141CA4D
S1131EE00895208531854285538564817581868175
S1131EF0978110CB08954BCD0895648575858685AB
S1131F00978506CC089560897189828993890C9498
S1131F102107089510926D0810926C08089510928C
S1131F20710810927008089583B7846083BF83B7E3
S1131F30886083BF87B7826087BF8AEF81BF0895B7
S1131F4080918E0890918F08A0919008B09191088B
S1131F500196A11DB11D80938E0890938F08A093C4
S1131F609008B0939108089560918E0870918F083D
S1131F708091900890919108089560918E087091D5
S1131F808F08809190089091910828EE33E040E00A
S1131F9050E090D0672B682B692BF1F480918D0869
S1131FA08F5F8C3318F480938D08089510928D08F8
S1131FB080918C088F5F8C3318F480938C0808957B
S1131FC010928C0880918B088F5F883118F480936D
S1131FD08B08089510928B08089504D06894B11169
S1131FE050C0089533D088F09F5790F0B92F9927A7
S1131FF0B751A0F0D1F0660F771F881F991F1AF010
S1132000BA95C9F712C0B13081F03AD0B1E0089561
S113201037C0672F782F8827B85F39F0B93FCCF3E2
S1132020869577956795B395D9F73EF49095809505
S1132030709561957F4F8F4F9F4F089557FD90582E
S1132040440F551F59F05F3F71F04795880F97FB78
S1132050991F61F09F3F79F0879508951216130632
S11320601406551FF2CF4695F1DF08C01616170661
S11320701806991FF1CF8695710561050894089596
S1132080E894BB2766277727CB0197F9089597FB38
S1132090072E16F4009406D077FD08D049D007FC2B
S11320A005D03EF4909581959F4F08957095619564
S11320B07F4F0895A1E21A2EAA1BBB1BFD010DC080
S11320C0AA1FBB1FEE1FFF1FA217B307E407F507E4
S11320D020F0A21BB30BE40BF50B661F771F881FC0
S11320E0991F1A9469F760957095809590959B0156
S11320F0AC01BD01CF010895052E97FB16F40094A1
S11321000FD057FD05D0D6DF07FC02D046F408C037
S113211050954095309521953F4F4F4F5F4F08950F
S113212090958095709561957F4F8F4F9F4F08953F
S1132130AA1BBB1B51E107C0AA1FBB1FA617B707E9
S113214010F0A61BB70B881F991F5A95A9F7809505
S11321509095BC01CD0108950F931F93CF93DF9306
S1132160CDB7DEB72E970FB6F894DEBF0FBECDBF46
S11321700D891E8986E08C831A8309838FEF9FE77C
S11321809E838D83AE01475E5F4F6F89788DCE014C
S1132190019610D0EF81F885E00FF11F10822E9682
S11321A00FB6F894DEBF0FBECDBFDF91CF911F9164
S11321B00F9108952F923F924F925F926F927F9268
S11321C08F929F92AF92BF92CF92DF92EF92FF9243
S11321D00F931F93CF93DF93CDB7DEB72B970FB633
S11321E0F894DEBF0FBECDBF6C017B018A01FC01F8
S11321F017821682838181FFBFC1CE0101963C0103
S1132200F6019381F70193FD859193FF81917F01FD
S1132210882309F4ADC1853239F493FD859193FF88
S113222081917F01853221F4B60190E0D6D1E8CFC7
S1132230912C212C312CFFE1F315D8F08B3279F05D
S113224038F4803279F08332A1F4232D20611DC04B
S11322508D3261F0803369F4232D216016C0832D03
S11322608260382EE32DE4603E2E2AC0F32DF86000
S11322701DC037FC2DC020ED280F2A3040F08E32CF
S1132280B9F436FC75C1232D2064322E19C036FEF4
S113229006C08AE0989E200D1124922E11C0EAE017
S11322A02E9E200D1124222EF32DF0623F2E08C005
S11322B08C3621F4832D8068382E02C0883641F490
S11322C0F70193FD859193FF81917F018111B3CF34
S11322D0982F9F7D9554933028F40C5F1F4F9FE3F4
S11322E099830DC0833631F0833771F0833509F05B
S11322F055C020C0F801808189830E5F1F4F882458
S11323008394912C530112C02801F2E04F0E511C0A
S1132310F801A080B18036FE03C0692D70E002C0D0
S11323206FEF7FEFC5014ED14C018201F32DFF7792
S11323303F2E15C0280122E0420E511CF801A08056
S1132340B18036FE03C0692D70E002C06FEF7FEFED
S1132350C5012DD14C01F32DF0683F2E820133FCD1
S113236019C0822D90E088169906A0F4B60180E287
S113237090E033D12A94F5CFF50137FC859137FEEF
S113238081915F01B60190E028D121102A9421E0C7
S1132390821A91088114910479F7E1C0843611F00E
S11323A0893639F5F80137FE07C060817181828171
S11323B093810C5F1F4F08C060817181072E000C50
S11323C0880B990B0E5F1F4FF32DFF763F2E97FF5F
S11323D009C090958095709561957F4F8F4F9F4F61
S11323E0F0683F2E2AE030E0A30133D1882E86180E
S11323F044C0853731F4232D2F7EB22E2AE030E0FD
S113240025C0932D997FB92E8F36C1F018F48835E5
S113241079F0AEC0803719F0883721F0A9C0E92FD0
S1132420E061BE2EB4FE0DC0FB2DF460BF2E09C0CA
S113243034FE0AC0292F2660B22E06C028E030E000
S113244005C020E130E002C020E132E0F801B7FE2F
S113245007C060817181828193810C5F1F4F06C028
S11324606081718180E090E00E5F1F4FA301F1D085
S1132470882E8618FB2DFF773F2E36FE0DC0232DA8
S11324802E7FA22E891458F434FE0BC032FC09C0EE
S1132490832D8E7EA82E05C0B82CA32C03C0B82C87
S11324A001C0B92CA4FE0FC0FE01E80DF11D80810E
S11324B0803321F49A2D997EA92E09C0A2FE06C06C
S11324C0B394B39404C08A2D867809F0B394A3FC22
S11324D010C0A0FE06C0B21480F4280C922C9B18E5
S11324E00DC0B21458F4B60180E290E076D0B394F3
S11324F0F8CFB21418F42B1802C0982C212CA4FE87
S11325000FC0B60180E390E068D0A2FE16C0A1FC23
S113251003C088E790E002C088E590E0B6010CC0F3
S11325208A2D867851F0A1FE02C08BE201C080E2C0
S1132530A7FC8DE2B60190E050D0891430F4B601C6
S113254080E390E04AD09A94F8CF8A94F301E80D9E
S1132550F11D8081B60190E040D08110F6CF222099
S113256009F44ECEB60180E290E037D02A94F7CF3A
S1132570F6018681978102C08FEF9FEF2B960FB6ED
S1132580F894DEBF0FBECDBFDF91CF911F910F91A5
S1132590FF90EF90DF90CF90BF90AF909F908F907F
S11325A07F906F905F904F903F902F900895FC0123
S11325B00590615070400110D8F7809590958E0F6A
S11325C09F1F0895FC016150704001900110D8F7DD
S11325D0809590958E0F9F1F08950F931F93CF930F
S11325E0DF93FB01238121FD03C08FEF9FEF2CC0FC
S11325F022FF16C046815781248135814217530733
S113260044F4A081B1819D012F5F3F4F318320832A
S11326108C93268137812F5F3F4F3783268314C0E5
S11326208B01EC01FB010084F185E02D0995892BD8
S1132630E1F6D80116968D919C91179701961796FD
S11326409C938E931697CE01DF91CF911F910F919A
S11326500895FA01AA27283051F1203181F1E89434
S11326606F936E7F6E5F7F4F8F4F9F4FAF4FB1E081
S11326703ED0B4E03CD0670F781F891F9A1FA11D7C
S1132680680F791F8A1F911DA11D6A0F711D811D7D
S1132690911DA11D20D009F468943F912AE0269F42
S11326A011243019305D3193DEF6CF010895462FA1
S11326B04770405D4193B3E00FD0C9F7F6CF462F82
S11326C04F70405D4A3318F0495D31FD40524193EB
S11326D002D0A9F7EACFB4E0A695979587957795A8
S11326E06795BA95C9F700976105710508959B012F
S11326F0AC010A2E06945795479537952795BA95B8
S1132700C9F7620F731F841F951FA01D0895F894C5
S1052710FFCFF5
S113271201020000000200000002000000010000AB
S1132722000100000002000000020000000200009C
S1132732000100000001000000010000000300008D
S1132742000200000001000000010000000100007E
S1132752000200000002000000020000000100006C
S113276200B203C203D103E203F2030304130423FA
S11327720434044404550414D0024214D082421492
S1132782D0024314D0824312D0024410D0824414A3
S1132792D0024512D0824559970A4266978A425F0F
S11327A2970A435F978A4361970A4464978A44600D
S11327B2970A45F0978A4518D5124218D5924218BD
S11327C2D5124318D5924317D5124417D5924417FC
S11327D2D5124517D5924548901B423B909B4242E5
S11327E2901B4342909B4342901B4442909B444221
S11327F2901B4542909B4548D0244255D0A4425553
S1132802D0244355D0A44354D0244452D0A4445297
S1132812D0244554D0A4452F9D2E423C9DAE423631
S11328229D2E43369DAE43379D2E44379DAE44378D
S11328329D2E45379DAE4548FF384248FFB8424871
S1132842FF384348FFB84348FF38444CFFB8444874
S1132852FF38454AFFB84563FF434270FFC34269EC
S1132862FF434369FFC3436BFF43446DFFC34468A3
S1132872FF43456AFFC345E9A64F4204A7CF420C72
S1132882A74F4300A7CF4300A74F4402A7CF440258
S1132892A74F4500A7CF4500005C420000DC420080
S11328A2005C430000DC4300005C440000DC4400A4
S11328B2005C450000DC45FE146942F114E942F76C
S11328C2146943F714E943F6146944F614E944F627
S11328D2146945F614E9450DF176420DF1F64213F9
S11328E2F1764310F1F64310F176440EF1F6440EFC
S11328F2F1764510F1F6457374617274002020205C
S113290220202020202020202020202020002020E1
S113291220536C656570696E672E2E2E7A7A20209C
S11329220020202020207061757365202020202043
S1132932002020204465687964726174696E67209E
S11329422000253032642020202000202020202056
S113295220656E6420202020202020002020536542
S11329626C656374204D6F6465202020002020254F
S11329723032642020706F77657220200020202579
S1132982303264202074696D657320200020202574
S113299230326420207365636F6E647320200020DC
S11329A220202020204E6F202020202020202000C4
S11329B22020202020205965732020202020202040
S11329C220002020205374616E64617264202020F0
S11329D22000202020506F77657246756C202020DD
S11329E200204C6F6E67205761746572696E6720B0
S11329F22000426F696C696E672057617368696E63
S1132A02670020437573746F6D2057617368696E34
S1132A1267200020536F616B696E672054696D658E
S1132A227320002057617368696E6720506F776561
S1132A327220002057617368696E67206C656E6747
S1132A4274682000202052696E73652054696D6594
S1132A5273202000205370696E2D447279205469CA
S1132A626D6573200020426F696C696E672057613F
S1132A727465723F2000202020536F616B696E677A
S1132A822E2E2E2020200020202057617368696E8C
S1132A92672E2E2E202020004E6F772052696E73EF
S1132AA2652825642F2564292E2E2E2000205265A8
S1132AB26C656173652057617465722020007761CB
S1132AC269742061206D696E7574652E2E20002054
S1132AD2202020526573657276653F2020202000F5
S1132AE220202020204E6F20202020202000202083
S1132AF220202059657320202020202000205365A7
S1132B027474696E6720486F757220002020202536
S1132B123032643A20200020202020203A20202035
S1132B2220616674657220200053657474696E674F
S1132B32206D696E7574657320002530326400203F
S1132B4220202072656D61696E7320202020002090
S1132B52202020253032643A00253032642020209F
S1132B6200202020205761746572696E672020203E
S1052B7220003D
S9030000FC
